{
  "_format": "hh-sol-artifact-1",
  "contractName": "MarketPlace",
  "sourceName": "contracts/MarketPlace.sol",
  "abi": [
    {
      "anonymous": false,
      "inputs": [
        {
          "indexed": false,
          "internalType": "string",
          "name": "product",
          "type": "string"
        },
        {
          "indexed": false,
          "internalType": "uint256",
          "name": "price",
          "type": "uint256"
        },
        {
          "indexed": true,
          "internalType": "address",
          "name": "owner",
          "type": "address"
        },
        {
          "indexed": true,
          "internalType": "address",
          "name": "seller",
          "type": "address"
        },
        {
          "indexed": false,
          "internalType": "address",
          "name": "ProductAddress",
          "type": "address"
        },
        {
          "indexed": false,
          "internalType": "uint256",
          "name": "timestamp",
          "type": "uint256"
        }
      ],
      "name": "ProductInvoice",
      "type": "event"
    },
    {
      "inputs": [
        {
          "internalType": "uint256",
          "name": "_itemId",
          "type": "uint256"
        },
        {
          "internalType": "address",
          "name": "_ProductAdd",
          "type": "address"
        }
      ],
      "name": "ProductBuyer",
      "outputs": [],
      "stateMutability": "payable",
      "type": "function"
    },
    {
      "inputs": [
        {
          "internalType": "string",
          "name": "productName",
          "type": "string"
        },
        {
          "internalType": "uint256",
          "name": "productPrice",
          "type": "uint256"
        }
      ],
      "name": "createProduct",
      "outputs": [],
      "stateMutability": "nonpayable",
      "type": "function"
    },
    {
      "inputs": [],
      "name": "itemCount",
      "outputs": [
        {
          "internalType": "uint256",
          "name": "",
          "type": "uint256"
        }
      ],
      "stateMutability": "view",
      "type": "function"
    },
    {
      "inputs": [
        {
          "internalType": "uint256",
          "name": "",
          "type": "uint256"
        }
      ],
      "name": "items",
      "outputs": [
        {
          "internalType": "uint256",
          "name": "itemId",
          "type": "uint256"
        },
        {
          "internalType": "address",
          "name": "ProductAddress",
          "type": "address"
        },
        {
          "internalType": "uint256",
          "name": "price",
          "type": "uint256"
        },
        {
          "internalType": "address payable",
          "name": "seller",
          "type": "address"
        },
        {
          "internalType": "string",
          "name": "product",
          "type": "string"
        }
      ],
      "stateMutability": "view",
      "type": "function"
    }
  ],
  "bytecode": "0x608060405234801561001057600080fd5b50611b0d806100206000396000f3fe608060405260043610620000445760003560e01c806362d5da6514620000495780636bfb0d011462000069578063bfb231d21462000099578063e9300c6c14620000e1575b600080fd5b620000676004803603810190620000619190620008a9565b6200010f565b005b3480156200007657600080fd5b506200008162000432565b60405162000090919062000901565b60405180910390f35b348015620000a657600080fd5b50620000c56004803603810190620000bf91906200091e565b62000438565b604051620000d895949392919062000a2a565b60405180910390f35b348015620000ee57600080fd5b506200010d600480360381019062000107919062000bdf565b6200053e565b005b6000600160008481526020019081526020016000209050600082905060008173ffffffffffffffffffffffffffffffffffffffff16639012b9a96040518163ffffffff1660e01b815260040160206040518083038186803b1580156200017457600080fd5b505afa15801562000189573d6000803e3d6000fd5b505050506040513d601f19601f82011682018060405250810190620001af919062000c5c565b905060008273ffffffffffffffffffffffffffffffffffffffff1663893d20e86040518163ffffffff1660e01b815260040160206040518083038186803b158015620001fa57600080fd5b505afa1580156200020f573d6000803e3d6000fd5b505050506040513d601f19601f8201168201806040525081019062000235919062000cbf565b905060008373ffffffffffffffffffffffffffffffffffffffff16635d38f3de6040518163ffffffff1660e01b815260040160006040518083038186803b1580156200028057600080fd5b505afa15801562000295573d6000803e3d6000fd5b505050506040513d6000823e3d601f19601f82011682018060405250810190620002c0919062000d6f565b90508173ffffffffffffffffffffffffffffffffffffffff166108fc349081150290604051600060405180830381858888f1935050505015801562000309573d6000803e3d6000fd5b508373ffffffffffffffffffffffffffffffffffffffff1663a6f9dae1336040518263ffffffff1660e01b815260040162000345919062000dc0565b600060405180830381600087803b1580156200036057600080fd5b505af115801562000375573d6000803e3d6000fd5b50505050338560030160006101000a81548173ffffffffffffffffffffffffffffffffffffffff021916908373ffffffffffffffffffffffffffffffffffffffff1602179055508173ffffffffffffffffffffffffffffffffffffffff163373ffffffffffffffffffffffffffffffffffffffff167fa4df8888f0e91ab634534f063a05a5a7c0af42c327f620c91fcdd3c6bd24ef2d83868a4260405162000421949392919062000ddd565b60405180910390a350505050505050565b60005481565b60016020528060005260406000206000915090508060000154908060010160009054906101000a900473ffffffffffffffffffffffffffffffffffffffff16908060020154908060030160009054906101000a900473ffffffffffffffffffffffffffffffffffffffff1690806004018054620004b59062000e60565b80601f0160208091040260200160405190810160405280929190818152602001828054620004e39062000e60565b8015620005345780601f10620005085761010080835404028352916020019162000534565b820191906000526020600020905b8154815290600101906020018083116200051657829003601f168201915b5050505050905085565b6000828233604051620005519062000737565b6200055f9392919062000e96565b604051809103906000f0801580156200057c573d6000803e3d6000fd5b509050600080815480929190620005939062000f09565b91905055506040518060a0016040528060005481526020018273ffffffffffffffffffffffffffffffffffffffff1681526020018381526020013373ffffffffffffffffffffffffffffffffffffffff1681526020018481525060016000805481526020019081526020016000206000820151816000015560208201518160010160006101000a81548173ffffffffffffffffffffffffffffffffffffffff021916908373ffffffffffffffffffffffffffffffffffffffff1602179055506040820151816002015560608201518160030160006101000a81548173ffffffffffffffffffffffffffffffffffffffff021916908373ffffffffffffffffffffffffffffffffffffffff1602179055506080820151816004019080519060200190620006c192919062000745565b509050503373ffffffffffffffffffffffffffffffffffffffff163373ffffffffffffffffffffffffffffffffffffffff167fa4df8888f0e91ab634534f063a05a5a7c0af42c327f620c91fcdd3c6bd24ef2d858585426040516200072a949392919062000ddd565b60405180910390a3505050565b610b808062000f5883390190565b828054620007539062000e60565b90600052602060002090601f016020900481019282620007775760008555620007c3565b82601f106200079257805160ff1916838001178555620007c3565b82800160010185558215620007c3579182015b82811115620007c2578251825591602001919060010190620007a5565b5b509050620007d29190620007d6565b5090565b5b80821115620007f1576000816000905550600101620007d7565b5090565b6000604051905090565b600080fd5b600080fd5b6000819050919050565b6200081e8162000809565b81146200082a57600080fd5b50565b6000813590506200083e8162000813565b92915050565b600073ffffffffffffffffffffffffffffffffffffffff82169050919050565b6000620008718262000844565b9050919050565b620008838162000864565b81146200088f57600080fd5b50565b600081359050620008a38162000878565b92915050565b60008060408385031215620008c357620008c2620007ff565b5b6000620008d3858286016200082d565b9250506020620008e68582860162000892565b9150509250929050565b620008fb8162000809565b82525050565b6000602082019050620009186000830184620008f0565b92915050565b600060208284031215620009375762000936620007ff565b5b600062000947848285016200082d565b91505092915050565b6200095b8162000864565b82525050565b60006200096e8262000844565b9050919050565b620009808162000961565b82525050565b600081519050919050565b600082825260208201905092915050565b60005b83811015620009c2578082015181840152602081019050620009a5565b83811115620009d2576000848401525b50505050565b6000601f19601f8301169050919050565b6000620009f68262000986565b62000a02818562000991565b935062000a14818560208601620009a2565b62000a1f81620009d8565b840191505092915050565b600060a08201905062000a416000830188620008f0565b62000a50602083018762000950565b62000a5f6040830186620008f0565b62000a6e606083018562000975565b818103608083015262000a828184620009e9565b90509695505050505050565b600080fd5b600080fd5b7f4e487b7100000000000000000000000000000000000000000000000000000000600052604160045260246000fd5b62000ad282620009d8565b810181811067ffffffffffffffff8211171562000af45762000af362000a98565b5b80604052505050565b600062000b09620007f5565b905062000b17828262000ac7565b919050565b600067ffffffffffffffff82111562000b3a5762000b3962000a98565b5b62000b4582620009d8565b9050602081019050919050565b82818337600083830152505050565b600062000b7862000b728462000b1c565b62000afd565b90508281526020810184848401111562000b975762000b9662000a93565b5b62000ba484828562000b52565b509392505050565b600082601f83011262000bc45762000bc362000a8e565b5b813562000bd684826020860162000b61565b91505092915050565b6000806040838503121562000bf95762000bf8620007ff565b5b600083013567ffffffffffffffff81111562000c1a5762000c1962000804565b5b62000c288582860162000bac565b925050602062000c3b858286016200082d565b9150509250929050565b60008151905062000c568162000813565b92915050565b60006020828403121562000c755762000c74620007ff565b5b600062000c858482850162000c45565b91505092915050565b62000c998162000961565b811462000ca557600080fd5b50565b60008151905062000cb98162000c8e565b92915050565b60006020828403121562000cd85762000cd7620007ff565b5b600062000ce88482850162000ca8565b91505092915050565b600062000d0862000d028462000b1c565b62000afd565b90508281526020810184848401111562000d275762000d2662000a93565b5b62000d34848285620009a2565b509392505050565b600082601f83011262000d545762000d5362000a8e565b5b815162000d6684826020860162000cf1565b91505092915050565b60006020828403121562000d885762000d87620007ff565b5b600082015167ffffffffffffffff81111562000da95762000da862000804565b5b62000db78482850162000d3c565b91505092915050565b600060208201905062000dd7600083018462000950565b92915050565b6000608082019050818103600083015262000df98187620009e9565b905062000e0a6020830186620008f0565b62000e19604083018562000950565b62000e286060830184620008f0565b95945050505050565b7f4e487b7100000000000000000000000000000000000000000000000000000000600052602260045260246000fd5b6000600282049050600182168062000e7957607f821691505b6020821081141562000e905762000e8f62000e31565b5b50919050565b6000606082019050818103600083015262000eb28186620009e9565b905062000ec36020830185620008f0565b62000ed2604083018462000950565b949350505050565b7f4e487b7100000000000000000000000000000000000000000000000000000000600052601160045260246000fd5b600062000f168262000809565b91507fffffffffffffffffffffffffffffffffffffffffffffffffffffffffffffffff82141562000f4c5762000f4b62000eda565b5b60018201905091905056fe60806040523480156200001157600080fd5b5060405162000b8038038062000b808339818101604052810190620000379190620003a3565b82600090805190602001906200004f929190620000b6565b50670de0b6b3a7640000826200006691906200044d565b60018190555080600260006101000a81548173ffffffffffffffffffffffffffffffffffffffff021916908373ffffffffffffffffffffffffffffffffffffffff16021790555050505062000513565b828054620000c490620004dd565b90600052602060002090601f016020900481019282620000e8576000855562000134565b82601f106200010357805160ff191683800117855562000134565b8280016001018555821562000134579182015b828111156200013357825182559160200191906001019062000116565b5b50905062000143919062000147565b5090565b5b808211156200016257600081600090555060010162000148565b5090565b6000604051905090565b600080fd5b600080fd5b600080fd5b600080fd5b6000601f19601f8301169050919050565b7f4e487b7100000000000000000000000000000000000000000000000000000000600052604160045260246000fd5b620001cf8262000184565b810181811067ffffffffffffffff82111715620001f157620001f062000195565b5b80604052505050565b60006200020662000166565b9050620002148282620001c4565b919050565b600067ffffffffffffffff82111562000237576200023662000195565b5b620002428262000184565b9050602081019050919050565b60005b838110156200026f57808201518184015260208101905062000252565b838111156200027f576000848401525b50505050565b60006200029c620002968462000219565b620001fa565b905082815260208101848484011115620002bb57620002ba6200017f565b5b620002c88482856200024f565b509392505050565b600082601f830112620002e857620002e76200017a565b5b8151620002fa84826020860162000285565b91505092915050565b6000819050919050565b620003188162000303565b81146200032457600080fd5b50565b60008151905062000338816200030d565b92915050565b600073ffffffffffffffffffffffffffffffffffffffff82169050919050565b60006200036b826200033e565b9050919050565b6200037d816200035e565b81146200038957600080fd5b50565b6000815190506200039d8162000372565b92915050565b600080600060608486031215620003bf57620003be62000170565b5b600084015167ffffffffffffffff811115620003e057620003df62000175565b5b620003ee86828701620002d0565b9350506020620004018682870162000327565b925050604062000414868287016200038c565b9150509250925092565b7f4e487b7100000000000000000000000000000000000000000000000000000000600052601160045260246000fd5b60006200045a8262000303565b9150620004678362000303565b9250817fffffffffffffffffffffffffffffffffffffffffffffffffffffffffffffffff0483118215151615620004a357620004a26200041e565b5b828202905092915050565b7f4e487b7100000000000000000000000000000000000000000000000000000000600052602260045260246000fd5b60006002820490506001821680620004f657607f821691505b602082108114156200050d576200050c620004ae565b5b50919050565b61065d80620005236000396000f3fe608060405234801561001057600080fd5b506004361061007d5760003560e01c80639012b9a91161005b5780639012b9a9146100dc578063a035b1fe146100fa578063a6f9dae114610118578063bf9ce952146101345761007d565b80635d38f3de14610082578063893d20e8146100a05780638da5cb5b146100be575b600080fd5b61008a610152565b604051610097919061047a565b60405180910390f35b6100a86101e4565b6040516100b591906104dd565b60405180910390f35b6100c661020e565b6040516100d391906104dd565b60405180910390f35b6100e4610234565b6040516100f19190610511565b60405180910390f35b61010261023e565b60405161010f9190610511565b60405180910390f35b610132600480360381019061012d919061056f565b610244565b005b61013c610291565b604051610149919061047a565b60405180910390f35b606060008054610161906105cb565b80601f016020809104026020016040519081016040528092919081815260200182805461018d906105cb565b80156101da5780601f106101af576101008083540402835291602001916101da565b820191906000526020600020905b8154815290600101906020018083116101bd57829003601f168201915b5050505050905090565b6000600260009054906101000a900473ffffffffffffffffffffffffffffffffffffffff16905090565b600260009054906101000a900473ffffffffffffffffffffffffffffffffffffffff1681565b6000600154905090565b60015481565b61024d8161031f565b80600260006101000a81548173ffffffffffffffffffffffffffffffffffffffff021916908373ffffffffffffffffffffffffffffffffffffffff16021790555050565b6000805461029e906105cb565b80601f01602080910402602001604051908101604052809291908181526020018280546102ca906105cb565b80156103175780601f106102ec57610100808354040283529160200191610317565b820191906000526020600020905b8154815290600101906020018083116102fa57829003601f168201915b505050505081565b6103b581604051602401610333919061060c565b6040516020818303038152906040527f2c2ecbc2000000000000000000000000000000000000000000000000000000007bffffffffffffffffffffffffffffffffffffffffffffffffffffffff19166020820180517bffffffffffffffffffffffffffffffffffffffffffffffffffffffff83818316178352505050506103b8565b50565b60008151905060006a636f6e736f6c652e6c6f679050602083016000808483855afa5050505050565b600081519050919050565b600082825260208201905092915050565b60005b8381101561041b578082015181840152602081019050610400565b8381111561042a576000848401525b50505050565b6000601f19601f8301169050919050565b600061044c826103e1565b61045681856103ec565b93506104668185602086016103fd565b61046f81610430565b840191505092915050565b600060208201905081810360008301526104948184610441565b905092915050565b600073ffffffffffffffffffffffffffffffffffffffff82169050919050565b60006104c78261049c565b9050919050565b6104d7816104bc565b82525050565b60006020820190506104f260008301846104ce565b92915050565b6000819050919050565b61050b816104f8565b82525050565b60006020820190506105266000830184610502565b92915050565b600080fd5b600061053c8261049c565b9050919050565b61054c81610531565b811461055757600080fd5b50565b60008135905061056981610543565b92915050565b6000602082840312156105855761058461052c565b5b60006105938482850161055a565b91505092915050565b7f4e487b7100000000000000000000000000000000000000000000000000000000600052602260045260246000fd5b600060028204905060018216806105e357607f821691505b602082108114156105f7576105f661059c565b5b50919050565b61060681610531565b82525050565b600060208201905061062160008301846105fd565b9291505056fea2646970667358221220f8bf3ce07f9c63d08a6a9590c3bacd847799311ff44bd1b80504a98a50509d9264736f6c63430008090033a264697066735822122012008d4ae0de1497dcd31d50a277ebbadc440b3739e82e0fe860ed522efafeef64736f6c63430008090033",
  "linkReferences": {},
  "deployedLinkReferences": {}
}